{
  "contractName": "Voting",
  "abi": [
    {
      "inputs": [
        {
          "internalType": "string[]",
          "name": "candidateNames",
          "type": "string[]"
        }
      ],
      "stateMutability": "nonpayable",
      "type": "constructor"
    },
    {
      "anonymous": false,
      "inputs": [
        {
          "indexed": true,
          "internalType": "address",
          "name": "voter",
          "type": "address"
        },
        {
          "indexed": true,
          "internalType": "uint256",
          "name": "candidateId",
          "type": "uint256"
        }
      ],
      "name": "Voted",
      "type": "event"
    },
    {
      "inputs": [
        {
          "internalType": "uint256",
          "name": "",
          "type": "uint256"
        }
      ],
      "name": "candidates",
      "outputs": [
        {
          "internalType": "uint256",
          "name": "id",
          "type": "uint256"
        },
        {
          "internalType": "string",
          "name": "name",
          "type": "string"
        },
        {
          "internalType": "uint256",
          "name": "voteCount",
          "type": "uint256"
        }
      ],
      "stateMutability": "view",
      "type": "function",
      "constant": true
    },
    {
      "inputs": [],
      "name": "candidatesCount",
      "outputs": [
        {
          "internalType": "uint256",
          "name": "",
          "type": "uint256"
        }
      ],
      "stateMutability": "view",
      "type": "function",
      "constant": true
    },
    {
      "inputs": [
        {
          "internalType": "address",
          "name": "",
          "type": "address"
        }
      ],
      "name": "voters",
      "outputs": [
        {
          "internalType": "bool",
          "name": "",
          "type": "bool"
        }
      ],
      "stateMutability": "view",
      "type": "function",
      "constant": true
    },
    {
      "inputs": [
        {
          "internalType": "uint256",
          "name": "candidateId",
          "type": "uint256"
        }
      ],
      "name": "vote",
      "outputs": [],
      "stateMutability": "nonpayable",
      "type": "function"
    },
    {
      "inputs": [
        {
          "internalType": "uint256",
          "name": "candidateId",
          "type": "uint256"
        }
      ],
      "name": "getCandidate",
      "outputs": [
        {
          "internalType": "uint256",
          "name": "",
          "type": "uint256"
        },
        {
          "internalType": "string",
          "name": "",
          "type": "string"
        },
        {
          "internalType": "uint256",
          "name": "",
          "type": "uint256"
        }
      ],
      "stateMutability": "view",
      "type": "function",
      "constant": true
    },
    {
      "inputs": [
        {
          "internalType": "string",
          "name": "_name",
          "type": "string"
        }
      ],
      "name": "addCandidate",
      "outputs": [],
      "stateMutability": "nonpayable",
      "type": "function"
    }
  ],
  "bytecode": "0x608060405234801562000010575f80fd5b506040516200157a3803806200157a8339818101604052810190620000369190620003b5565b5f8151116200007c576040517f08c379a0000000000000000000000000000000000000000000000000000000008152600401620000739062000462565b60405180910390fd5b5f5b8151811015620001305760025f8154809291906200009c90620004b8565b919050555060405180606001604052806002548152602001838381518110620000ca57620000c962000504565b5b602002602001015181526020015f8152505f8060025481526020019081526020015f205f820151815f015560208201518160010190816200010c91906200075f565b506040820151816002015590505080806200012790620004b8565b9150506200007e565b505062000843565b5f604051905090565b5f80fd5b5f80fd5b5f80fd5b5f601f19601f8301169050919050565b7f4e487b71000000000000000000000000000000000000000000000000000000005f52604160045260245ffd5b62000195826200014d565b810181811067ffffffffffffffff82111715620001b757620001b66200015d565b5b80604052505050565b5f620001cb62000138565b9050620001d982826200018a565b919050565b5f67ffffffffffffffff821115620001fb57620001fa6200015d565b5b602082029050602081019050919050565b5f80fd5b5f80fd5b5f67ffffffffffffffff8211156200023157620002306200015d565b5b6200023c826200014d565b9050602081019050919050565b5f5b83811015620002685780820151818401526020810190506200024b565b5f8484015250505050565b5f62000289620002838462000214565b620001c0565b905082815260208101848484011115620002a857620002a762000210565b5b620002b584828562000249565b509392505050565b5f82601f830112620002d457620002d362000149565b5b8151620002e684826020860162000273565b91505092915050565b5f62000305620002ff84620001de565b620001c0565b905080838252602082019050602084028301858111156200032b576200032a6200020c565b5b835b818110156200037957805167ffffffffffffffff81111562000354576200035362000149565b5b808601620003638982620002bd565b855260208501945050506020810190506200032d565b5050509392505050565b5f82601f8301126200039a576200039962000149565b5b8151620003ac848260208601620002ef565b91505092915050565b5f60208284031215620003cd57620003cc62000141565b5b5f82015167ffffffffffffffff811115620003ed57620003ec62000145565b5b620003fb8482850162000383565b91505092915050565b5f82825260208201905092915050565b7f4174206c65617374206f6e652063616e646964617465207265717569726564005f82015250565b5f6200044a601f8362000404565b9150620004578262000414565b602082019050919050565b5f6020820190508181035f8301526200047b816200043c565b9050919050565b7f4e487b71000000000000000000000000000000000000000000000000000000005f52601160045260245ffd5b5f819050919050565b5f620004c482620004af565b91507fffffffffffffffffffffffffffffffffffffffffffffffffffffffffffffffff8203620004f957620004f862000482565b5b600182019050919050565b7f4e487b71000000000000000000000000000000000000000000000000000000005f52603260045260245ffd5b5f81519050919050565b7f4e487b71000000000000000000000000000000000000000000000000000000005f52602260045260245ffd5b5f60028204905060018216806200058057607f821691505b6020821081036200059657620005956200053b565b5b50919050565b5f819050815f5260205f209050919050565b5f6020601f8301049050919050565b5f82821b905092915050565b5f60088302620005fa7fffffffffffffffffffffffffffffffffffffffffffffffffffffffffffffffff82620005bd565b620006068683620005bd565b95508019841693508086168417925050509392505050565b5f819050919050565b5f62000647620006416200063b84620004af565b6200061e565b620004af565b9050919050565b5f819050919050565b620006628362000627565b6200067a62000671826200064e565b848454620005c9565b825550505050565b5f90565b6200069062000682565b6200069d81848462000657565b505050565b5b81811015620006c457620006b85f8262000686565b600181019050620006a3565b5050565b601f8211156200071357620006dd816200059c565b620006e884620005ae565b81016020851015620006f8578190505b620007106200070785620005ae565b830182620006a2565b50505b505050565b5f82821c905092915050565b5f620007355f198460080262000718565b1980831691505092915050565b5f6200074f838362000724565b9150826002028217905092915050565b6200076a8262000531565b67ffffffffffffffff8111156200078657620007856200015d565b5b62000792825462000568565b6200079f828285620006c8565b5f60209050601f831160018114620007d5575f8415620007c0578287015190505b620007cc858262000742565b8655506200083b565b601f198416620007e5866200059c565b5f5b828110156200080e57848901518255600182019150602085019450602081019050620007e7565b868310156200082e57848901516200082a601f89168262000724565b8355505b6001600288020188555050505b505050505050565b610d2980620008515f395ff3fe608060405234801561000f575f80fd5b5060043610610060575f3560e01c80630121b93f146100645780632d35a8a2146100805780633477ee2e1461009e57806335b8e820146100d0578063462e91ec14610102578063a3ec138d1461011e575b5f80fd5b61007e600480360381019061007991906105a2565b61014e565b005b6100886102eb565b60405161009591906105dc565b60405180910390f35b6100b860048036038101906100b391906105a2565b6102f1565b6040516100c79392919061067f565b60405180910390f35b6100ea60048036038101906100e591906105a2565b61039c565b6040516100f99392919061067f565b60405180910390f35b61011c600480360381019061011791906107e7565b6104cd565b005b61013860048036038101906101339190610888565b610541565b60405161014591906108cd565b60405180910390f35b60015f3373ffffffffffffffffffffffffffffffffffffffff1673ffffffffffffffffffffffffffffffffffffffff1681526020019081526020015f205f9054906101000a900460ff16156101d8576040517f08c379a00000000000000000000000000000000000000000000000000000000081526004016101cf90610930565b60405180910390fd5b5f811180156101e957506002548111155b610228576040517f08c379a000000000000000000000000000000000000000000000000000000000815260040161021f90610998565b60405180910390fd5b6001805f3373ffffffffffffffffffffffffffffffffffffffff1673ffffffffffffffffffffffffffffffffffffffff1681526020019081526020015f205f6101000a81548160ff0219169083151502179055505f808281526020019081526020015f206002015f81548092919061029f906109e3565b9190505550803373ffffffffffffffffffffffffffffffffffffffff167f4d99b957a2bc29a30ebd96a7be8e68fe50a3c701db28a91436490b7d53870ca460405160405180910390a350565b60025481565b5f602052805f5260405f205f91509050805f01549080600101805461031590610a57565b80601f016020809104026020016040519081016040528092919081815260200182805461034190610a57565b801561038c5780601f106103635761010080835404028352916020019161038c565b820191905f5260205f20905b81548152906001019060200180831161036f57829003601f168201915b5050505050908060020154905083565b5f60605f80841180156103b157506002548411155b6103f0576040517f08c379a00000000000000000000000000000000000000000000000000000000081526004016103e790610998565b60405180910390fd5b5f805f8681526020019081526020015f206040518060600160405290815f820154815260200160018201805461042590610a57565b80601f016020809104026020016040519081016040528092919081815260200182805461045190610a57565b801561049c5780601f106104735761010080835404028352916020019161049c565b820191905f5260205f20905b81548152906001019060200180831161047f57829003601f168201915b505050505081526020016002820154815250509050805f015181602001518260400151935093509350509193909250565b60025f8154809291906104df906109e3565b9190505550604051806060016040528060025481526020018281526020015f8152505f8060025481526020019081526020015f205f820151815f015560208201518160010190816105309190610c24565b506040820151816002015590505050565b6001602052805f5260405f205f915054906101000a900460ff1681565b5f604051905090565b5f80fd5b5f80fd5b5f819050919050565b6105818161056f565b811461058b575f80fd5b50565b5f8135905061059c81610578565b92915050565b5f602082840312156105b7576105b6610567565b5b5f6105c48482850161058e565b91505092915050565b6105d68161056f565b82525050565b5f6020820190506105ef5f8301846105cd565b92915050565b5f81519050919050565b5f82825260208201905092915050565b5f5b8381101561062c578082015181840152602081019050610611565b5f8484015250505050565b5f601f19601f8301169050919050565b5f610651826105f5565b61065b81856105ff565b935061066b81856020860161060f565b61067481610637565b840191505092915050565b5f6060820190506106925f8301866105cd565b81810360208301526106a48185610647565b90506106b360408301846105cd565b949350505050565b5f80fd5b5f80fd5b7f4e487b71000000000000000000000000000000000000000000000000000000005f52604160045260245ffd5b6106f982610637565b810181811067ffffffffffffffff82111715610718576107176106c3565b5b80604052505050565b5f61072a61055e565b905061073682826106f0565b919050565b5f67ffffffffffffffff821115610755576107546106c3565b5b61075e82610637565b9050602081019050919050565b828183375f83830152505050565b5f61078b6107868461073b565b610721565b9050828152602081018484840111156107a7576107a66106bf565b5b6107b284828561076b565b509392505050565b5f82601f8301126107ce576107cd6106bb565b5b81356107de848260208601610779565b91505092915050565b5f602082840312156107fc576107fb610567565b5b5f82013567ffffffffffffffff8111156108195761081861056b565b5b610825848285016107ba565b91505092915050565b5f73ffffffffffffffffffffffffffffffffffffffff82169050919050565b5f6108578261082e565b9050919050565b6108678161084d565b8114610871575f80fd5b50565b5f813590506108828161085e565b92915050565b5f6020828403121561089d5761089c610567565b5b5f6108aa84828501610874565b91505092915050565b5f8115159050919050565b6108c7816108b3565b82525050565b5f6020820190506108e05f8301846108be565b92915050565b7f596f75206861766520616c726561647920766f746564000000000000000000005f82015250565b5f61091a6016836105ff565b9150610925826108e6565b602082019050919050565b5f6020820190508181035f8301526109478161090e565b9050919050565b7f496e76616c69642063616e6469646174652049440000000000000000000000005f82015250565b5f6109826014836105ff565b915061098d8261094e565b602082019050919050565b5f6020820190508181035f8301526109af81610976565b9050919050565b7f4e487b71000000000000000000000000000000000000000000000000000000005f52601160045260245ffd5b5f6109ed8261056f565b91507fffffffffffffffffffffffffffffffffffffffffffffffffffffffffffffffff8203610a1f57610a1e6109b6565b5b600182019050919050565b7f4e487b71000000000000000000000000000000000000000000000000000000005f52602260045260245ffd5b5f6002820490506001821680610a6e57607f821691505b602082108103610a8157610a80610a2a565b5b50919050565b5f819050815f5260205f209050919050565b5f6020601f8301049050919050565b5f82821b905092915050565b5f60088302610ae37fffffffffffffffffffffffffffffffffffffffffffffffffffffffffffffffff82610aa8565b610aed8683610aa8565b95508019841693508086168417925050509392505050565b5f819050919050565b5f610b28610b23610b1e8461056f565b610b05565b61056f565b9050919050565b5f819050919050565b610b4183610b0e565b610b55610b4d82610b2f565b848454610ab4565b825550505050565b5f90565b610b69610b5d565b610b74818484610b38565b505050565b5b81811015610b9757610b8c5f82610b61565b600181019050610b7a565b5050565b601f821115610bdc57610bad81610a87565b610bb684610a99565b81016020851015610bc5578190505b610bd9610bd185610a99565b830182610b79565b50505b505050565b5f82821c905092915050565b5f610bfc5f1984600802610be1565b1980831691505092915050565b5f610c148383610bed565b9150826002028217905092915050565b610c2d826105f5565b67ffffffffffffffff811115610c4657610c456106c3565b5b610c508254610a57565b610c5b828285610b9b565b5f60209050601f831160018114610c8c575f8415610c7a578287015190505b610c848582610c09565b865550610ceb565b601f198416610c9a86610a87565b5f5b82811015610cc157848901518255600182019150602085019450602081019050610c9c565b86831015610cde5784890151610cda601f891682610bed565b8355505b6001600288020188555050505b50505050505056fea264697066735822122069a1e6b2beb2d12698e8b2af29d3e56d91592bab36d16955f7fd42f5add2616e64736f6c63430008150033",
  "immutableReferences": {},
  "source": "// SPDX-License-Identifier: MIT\r\npragma solidity ^0.8.21;\r\n\r\ncontract Voting {\r\n    struct Candidate {\r\n        uint id;\r\n        string name;\r\n        uint voteCount;\r\n    }\r\n\r\n    mapping(uint => Candidate) public candidates;\r\n    mapping(address => bool) public voters;\r\n    uint public candidatesCount;\r\n\r\n    event Voted(address indexed voter, uint indexed candidateId);\r\n\r\n    constructor(string[] memory candidateNames) {\r\n        require(candidateNames.length > 0, \"At least one candidate required\");\r\n\r\n        for (uint i = 0; i < candidateNames.length; i++) {\r\n            candidatesCount++;\r\n            candidates[candidatesCount] = Candidate(candidatesCount, candidateNames[i], 0);\r\n        }\r\n    }\r\n\r\n    function vote(uint candidateId) public {\r\n        require(!voters[msg.sender], \"You have already voted\");\r\n        require(candidateId > 0 && candidateId <= candidatesCount, \"Invalid candidate ID\");\r\n\r\n        voters[msg.sender] = true;\r\n        candidates[candidateId].voteCount++;\r\n\r\n        emit Voted(msg.sender, candidateId);\r\n    }\r\n\r\n    function getCandidate(uint candidateId) public view returns (uint, string memory, uint) {\r\n        require(candidateId > 0 && candidateId <= candidatesCount, \"Invalid candidate ID\");\r\n        Candidate memory candidate = candidates[candidateId];\r\n        return (candidate.id, candidate.name, candidate.voteCount);\r\n    }\r\n\r\n    // Optional: Function to add new candidates after deployment\r\n    function addCandidate(string memory _name) public {\r\n        candidatesCount++;\r\n        candidates[candidatesCount] = Candidate(candidatesCount, _name, 0);\r\n    }\r\n}\r\n",
  "sourcePath": "C:\\Users\\Victus\\Desktop\\e-voting-blockchain\\contracts\\Voting.sol",
  "compiler": {
    "name": "solc",
    "version": "0.8.21+commit.d9974bed.Emscripten.clang"
  },
  "schemaVersion": "3.4.16",
  "updatedAt": "2025-03-26T14:43:32.225Z",
  "networkType": "ethereum",
  "devdoc": {
    "kind": "dev",
    "methods": {},
    "version": 1
  },
  "userdoc": {
    "kind": "user",
    "methods": {},
    "version": 1
  }
}